:101E000001C0E4C0112484B7882369F0982F9A7028
:101E1000923049F081FF03C094B7977F94BF282E7A
:101E200080E0C0D0EDC0E1E0F0E081E287BF8491C6
:101E300085508093660085E08093810082E08093E6
:101E4000C00088E18093C10086E08093C20089E1F0
:101E50008093C4008EE0A6D0289A86E023EC3FEF62
:101E600091E0309385002093840096BBB09BFECF19
:101E7000209AA8954091C00047FD02C0815089F783
:101E8000EE24E39495E0D92E21E1C22E7FD0813457
:101E900061F47CD0182F8BD01238E9F0113811F48E
:101EA0008BE301C083E06BD067C0823411F484E11E
:101EB00003C0853419F485E082D05EC0853539F4DD
:101EC00065D0C82F63D0D82FCC0FDD1F54C0863506
:101ED00021F484E074D080E0E6CF843609F02EC08F
:101EE00055D054D0F82E52D0B82E00E011E04ED08C
:101EF000F80181938F01FE12FACF59D0F5E4BF1299
:101F000001C0FFCF83E0FE0187BFE89507B600FC64
:101F1000FDCFA0E0B1E0FE018D919D910C01E7BEE7
:101F2000E89511243296FA12F7CFFE01D7BEE89554
:101F300007B600FCFDCFC7BEE8951EC0843771F41C
:101F400025D024D0F82E22D032D08E01F8018591F0
:101F50008F0115D0FA94F110F9CF0EC0853739F4FE
:101F600026D08EE10CD083E90AD084E19CCF813564
:101F700011F488E017D01BD080E101D087CF909179
:101F8000C00095FFFCCF8093C60008958091C000EB
:101F900087FFFCCF8091C00084FD01C0A89580918F
:101FA000C600089598ED96BF809360000895EEDF17
:101FB000803219F088E0F6DFFFCF84E1E0CFCF93E5
:101FC000C82FE4DFC150E9F7CF91F1CFFC010A013E
:101FD00067BFE895112407B600FCFDCF667029F0B5
:0C1FE000452B19F481E187BFE8950895B6
:021FFE00003BA6
:0400000300001E00DB
:00000001FF
