:101D800001C019C1112484B7882371F0982F9A706B
:101D9000923051F081FF02C097EF94BF282E80E06F
:101DA000F7D0E9E0FF2709948EE08FBDF1D0BB9A10
:101DB000D69A86E090E824E09EBD28BF08B602FED1
:101DC000FDCFB39AA8958150B9F793E0D92ECC24D2
:101DD000C39425E0B22E32ECE32E3EE0F32E8F2D9D
:101DE000806CA82EC1D0813461F4BED0182FD4D01D
:101DF0001238E9F0113811F488E001C083E0A5D071
:101E0000A1C0823411F484E103C0853419F485E063
:101E1000CBD098C0853539F4A7D0C82FA5D0D82FFE
:101E2000CC0FDD1F8EC0863521F484E0BDD080E06C
:101E3000E6CF843609F04FC097D096D0982E94D034
:101E4000882E792C00E610E08FD0F80181938F0165
:101E50007A947110F9CFA0D02097F1F430916000FE
:101E60003093E400209161002093E500A09261008E
:101E7000409172004093E600409173004093E70068
:101E8000832F922F099780937200892F8F70806C17
:101E900080937300E0926000F5E48F1201C0FFCFE1
:101EA000FE01D7BEE89507B600FCFDCFA0E6B0E086
:101EB000FE018D919D910C01C7BEE89511249A9465
:101EC0009A9432969110F5CFFE01B7BEE89507B609
:101ED00000FCFDCF37C0843739F546D045D0982E69
:101EE00043D05AD08E010115110519F48091E400F8
:101EF00014C00130110519F48091E5000EC00231C3
:101F0000110519F48091E60008C00331110519F498
:101F10008091E70002C0F801849117D09A940F5F76
:101F20001F4F9110E0CF0EC0853739F435D08EE1C8
:101F30000CD083E90AD08DE062CF813511F488E0BE
:101F400027D02AD080E101D04DCF2AE030E0809523
:101F5000089410F4DE9802C0DE9A000015D014D068
:101F600086952A95B1F70895A89529E030E0CF9994
:101F7000FECF0AD009D008D08894CF9908942A952A
:101F800011F08795F7CF08959CE49A95F1F708959D
:101F900098E191BD81BD0895E7DF803219F088E0B6
:101FA000F7DFFFCF84E1D1CFCF93C82FDDDFC15062
:101FB000E9F7CF91F1CFFC010A0167BFE895112441
:081FC00007B600FCFDCF0895F7
:021FFE000008D9
:0400000300001D805C
:00000001FF
