:103D800001C01BC1112485B7882371F0982F9A7048
:103D9000923051F081FF02C097EF95BF282E80E04E
:103DA000F9D0E4E3FF27099485E08093710082E075
:103DB00086BD88E185BD86E084BD83E181BD8EE05E
:103DC000E9D0409A389A86E02EEC3DEF90E83093A7
:103DD0006F0020936E0099BF09B607FEFDCF389A99
:103DE000A89506B407FC02C0815089F782EC9EE1D9
:103DF000D92ECC24C39425E0922E33E0832E7C016F
:103E0000C0D0813479F4BDD0182FC8D0123811F445
:103E100080E004C088E0113809F083E0ADD080E193
:103E2000ABD0EECF823419F484E1C0D0F8CF853422
:103E300011F485E0FACF853541F4A3D0C82FA1D085
:103E4000D82FCC0FDD1FAAD0EACF863519F484E035
:103E5000ADD0DECF843609F057C093D092D0782E03
:103E600090D0682E00E011E058018FEFA81AB80A30
:103E700088D0F801808385017A10F6CF8FD0209703
:103E800081F4809102018093440180910301809329
:103E90004501E0920201D0920301F5E46F1215C0D2
:103EA000FFCFC036D105C9F780910A018093460142
:103EB00080910B01809347018091440180930A0116
:103EC0008091450180930B01E8CF8C2F8F77FE0105
:103ED00031F487BEE89507B600FCFDCFFE01A0E0F7
:103EE000B1E0CD0102962D913C910901C7BEE89544
:103EF00011243296DC017812F4CFFE0197BEE895CA
:103F000007B600FCFDCF8BCF843739F53AD039D0D6
:103F1000B82E37D043D08E010230110549F480917C
:103F200044012AD0BA940F5F1F4FB110F5CF77CF5D
:103F30000330110519F480914501F3CF0A361105BC
:103F400019F480914601EDCF0B36110519F48091DB
:103F50004701E7CFF8018491E4CF853739F41ED0CB
:103F60008EE10AD084E908D082E158CF813509F08A
:103F70006ACF88E00FD067CF06B405FEFDCF80BDC5
:103F8000089506B407FEFDCF06B404FC01C0A89551
:103F900080B5089598ED9FBD80BF0895F2DF80320F
:103FA00019F088E0F7DFFFCF84E1E6CFCF93C82F89
:103FB000E8DFC150E9F7CF91F1CFFC010A0167BFFB
:0C3FC000E895112407B600FCFDCF089521
:023FFE000008B9
:0400000300003D803C
:00000001FF
