:101D800001C021C1112484B7882371F0982F9A7063
:101D9000923051F081FF02C097EF94BF282E80E06F
:101DA000FED0EEE0FF27099485E08EBD82E08093AF
:101DB000960088E18093950086E0809394008BE004
:101DC000809391008EE0EBD0BA9A86E02DE53DEF4E
:101DD00091E03DBD2CBD9EB9709BFECFB29AA895F7
:101DE0004091960047FD02C0815099F7AA24A39420
:101DF00095E0992E22ECC22E2EE0D22E8D2D806CF5
:101E0000882EC1D0813461F4BED0182FCDD01238C5
:101E1000E9F0113811F488E001C083E0ADD0A9C029
:101E2000823411F484E103C0853419F485E0C4D010
:101E3000A0C0853539F4A7D0C82FA5D0D82FCC0F96
:101E4000DD1F96C0863521F484E0B6D080E0E6CF71
:101E5000843609F057C097D096D0B82E94D0782EFB
:101E600000E011E090D0F80181938F01BE12FACF0B
:101E70009BD0209769F48091000180932401809188
:101E8000010180932501C09200018092010119C0D7
:101E9000C031D105B1F4E0902401F090250180918A
:101EA0000C018093260180910D0180932701FEE0B3
:101EB000EF1AF108E0920C018F2D8F70806C8093E7
:101EC0000D0185E4781201C0FFCF8C2F8F7339F498
:101ED00083E0FE0187BFE89507B600FCFDCFFE0159
:101EE000A0E0B1E08D919D910C01A7BEE895112471
:101EF0003296BA12F7CFFE0197BEE89507B600FCFE
:101F0000FDCF37C0843739F53ED03DD0B82E3BD019
:101F10004BD08E010115110519F48091240114C0D4
:101F20000130110519F4809125010EC00C31110505
:101F300019F48091260108C00D31110519F4809122
:101F4000270102C0F801849117D0BA940F5F1F4F88
:101F5000B110E0CF0EC0853739F426D08EE10CD019
:101F600083E90AD085E15ACF813511F488E017D092
:101F70001BD080E101D045CF9091960095FFFCCF1A
:101F80008093900008958091960087FFFCCF809108
:101F9000960084FD01C0A89580919000089598ED69
:101FA0009093710081BD0895EEDF803219F088E0D2
:101FB000F6DFFFCF84E1E0CFCF93C82FE4DFC1503D
:101FC000E9F7CF91F1CFFC010A0167BFE895112431
:081FD00007B600FCFDCF0895E7
:021FFE000008D9
:0400000300001D805C
:00000001FF
