:100D800001C01CC1112484B7882371F0982F9A7078
:100D9000923051F081FF02C097EF94BF282E80E07F
:100DA000F8D0E1E1FF27099485E0809381008EE08F
:100DB000F0D0259A569A86E028E13EEF91E03093F4
:100DC00085002093840096BBB09BFECF1D9AA8950A
:100DD0008150A9F793E0C92EBB24B39425E0A22E3D
:100DE00032ECE32E36E0F32E8F2D806C982EBDD0A2
:100DF000813461F4BAD0182FD2D01238E9F011380A
:100E000011F488E001C083E0A1D09DC0823411F4C8
:100E100084E103C0853419F485E0C9D094C08535D8
:100E200039F4A3D0C82FA1D0D82FCC0FDD1F8AC092
:100E3000863521F484E0BBD080E0E6CF843609F02B
:100E40004BC093D092D0D82E90D0882E00E011E0E5
:100E50008CD0F80181938F01DE12FACFA0D02097B9
:100E6000F1F430910001309384012091010120932D
:100E700085019092010140912201409386014091A9
:100E8000230140938701832F922F41978093220162
:100E9000892F8F70806C80932301E0920001F5E42C
:100EA0008F1201C0FFCFFE01C7BEE89507B600FC58
:100EB000FDCFA0E0B1E0FE018D919D910C01B7BE88
:100EC000E89511243296DA12F7CFFE01A7BEE89515
:100ED00007B600FCFDCF37C0843739F546D045D082
:100EE000D82E43D05CD08E010115110519F48091E4
:100EF000840114C00130110519F4809185010EC0E0
:100F00000232110519F48091860108C003321105DF
:100F100019F48091870102C0F801849117D0DA9406
:100F20000F5F1F4FD110E0CF0EC0853739F437D097
:100F30008EE10CD082E90AD089E066CF813511F4C8
:100F400088E027D02CD080E101D051CF2AE030E0DA
:100F50008095089410F45E9802C05E9A000015D047
:100F600014D086952A95B1F70895A89529E030E028
:100F70004F99FECF0AD009D008D088944F99089491
:100F80002A9511F08795F7CF089592E49A95F1F795
:100F90000895E0E6F0E098E1908380830895E5DF2E
:100FA000803219F088E0F5DFFFCF84E1CFCFCF9317
:100FB000C82FDBDFC150E9F7CF91F1CFFC010A0167
:0E0FC00067BFE895112407B600FCFDCF089529
:021FFE000008D9
:0400000300000D806C
:00000001FF
