:10000000E9C004C103C102C101C100C1FFC0FEC0FB
:10001000FDC0FCC0FBC0FAC0F9C0F8C0F7C062C2A6
:100020005FC270C261C270C271C272C25FC270C26E
:100030006DC26AC25DC25EC265C252C20D0A004391
:10004000757272656E742043616C203D20000D0A4C
:100050000D0A456E61626C696E6720426F6F746C49
:100060006F6164657220616E64205265626F6F74A7
:10007000696E670D0A0D0A0043616C6962726174F2
:10008000696F6E20736176656420616E64205469C7
:100090006E7954756E65722044656C657465640D87
:1000A0000A0052656D6F76696E672063616C6C2023
:1000B000746F2054696E7954756E657220746F2068
:1000C00072656475636520626F6F746C6F616465DF
:1000D000722073697A6520627920322E336B6279DF
:1000E0007465730D0A000D0A536176696E672043CB
:1000F000616C6962726174696F6E20746F205072F6
:100100006F6772616D204D656D6F72792E2E2E0DA9
:100110000A000D0A0D0A46696E616C2043616C206D
:100120003D20000D0A4C6574732073656520696677
:100130002077652063616E20646F2062657474654A
:10014000720D0A0D0A0043757272656E7420436168
:100150006C6962726174696F6E203D2000506F6F30
:1001600072204D616E277320496E7465726E616CEA
:10017000204F7363696C6C61746F722054756E6587
:10018000720D0A536C6F776C792073656E64206C06
:100190006F776572636173652027782720746F20FD
:1001A00074756E6520746865206F7363696C6C612B
:1001B000746F722E2E2E0D0A0D0A00456E74657234
:1001C000696E672054696E792054756E65720D0AE8
:1001D0000D0A000011241FBECFE5D2E0DEBFCDBF67
:1001E00010E0A0E6B0E0EAEFF7E002C005900D9263
:1001F000A036B107D9F710E0A0E6B0E001C01D922B
:10020000A036B107E1F701D0F6C2DADDF9CE96E803
:100210009A95F1F708952AE08095089410F4C09813
:1002200002C0C09A0000F3DFF2DF86952A95B1F78D
:100230000895CF93DF93EC01FC01849103C0EBDFC1
:10024000FE01849121968823D1F7DF91CF91089503
:100250008FE390E0EEDF81B7DEDF8CE390E0E9CF63
:10026000CF92DF92EF92FF920F931F93CF93DF9382
:100270007C01EC01DD240FEF1FE7CC246A857B8530
:1002800080E090E02AE030E040E050E052D2298562
:1002900030E040E050E079D22F5F3F4F4F4F5F4F4B
:1002A00056954795379527952C543D4137FF03C008
:1002B000309521953F4F38872F83201731072CF435
:1002C000F701D1828901CC2407C02017310721F41E
:1002D000F701D182CC24C394D3942996F3E0DF169E
:1002E00069F680E0CC2009F481E0DF91CF911F9185
:1002F0000F91FF90EF90DF90CF900895FC01A781C0
:10030000B085218D328D458156816789708DA21708
:10031000B307B4F483819481958784875787468790
:10032000B18BA08B019794838383118613861286E9
:1003300081E0828B548B438B838F758F648F15C0C4
:10034000858996899587848777876687318B208B07
:1003500021E0218753874287228B748B638B019620
:10036000968B858B138E158E148E82E08083089574
:10037000EF92FF920F931F93CF93DF93EC01EE2444
:10038000FF24C701B199FECFF89400000000019648
:10039000B19BFDCF0196B199FDCF0196B19BFDCFE9
:1003A00078947C018881882399F48FEF9FEF9C8358
:1003B0008B8381B790E08F7790709D878C8780E8E2
:1003C00090E09E8B8D8B81E08983888383E08A8394
:1003D0008881823009F06DC08981A82FB0E0CD01FD
:1003E00069E070E094D1FE01E80FF91F85819681E4
:1003F0008E159F0520F49701281B390B03C09C0123
:100400002E193F09CD0169E070E081D18E01080FFE
:10041000191FF801F682E5822330310558F0CD012D
:10042000019669E070E073D1FE01E80FF91F808149
:100430008823D9F5CD01019669E070E068D1FE010D
:10044000E80FF91F20812F5F2083CD0169E070E064
:100450005ED1FE01E80FF91F828593858E0D9F1DE9
:10046000938782878A81281720F119820FC0812FF4
:1004700090E0019669E070E04AD1FE01E80FF91FB3
:1004800090818A819817A8F01F5F19831981133012
:1004900070F3133071F4CE01E3DE882311F018837A
:1004A00008C08A818E5F8A8304C01082F801138697
:1004B00012868881813009F078C0C70165E070E05C
:1004C00026D18C010C541D41C80164E670E04AD16C
:1004D000FB013796EF30F10578F4E15FFF4F0994A7
:1004E00081E117C084E115C08CE013C081E011C028
:1004F0008BE00FC08DE00DC077FD02C082E109C026
:1005000085E107C08FE005C089E003C086E001C037
:1005100083E02C853D85482F552747FD509517FFD3
:1005200023C03C832B83FE82ED8288279927801B82
:10053000910B98878F83CA01820F931F9D878C87A9
:100540004D895E898417950784F1CA0101979D87BB
:100550008C87281739074CF1C90101968417950734
:10056000E9F09D878C8721C03E8B2D8BF88EEF8A1A
:100570001A8F098FC901841B950B9D878C874B812E
:100580005C81481759078CF0CA0101969D878C87BA
:100590008217930754F08217930719F4CE01AEDE49
:1005A00004C0215030403D872C87898190E069E06C
:1005B00070E0ADD0FE01E80FF91F238181B7982FBD
:1005C0009F77382F3078291738F49150892F832B53
:1005D00081BF2917D1F708C0921730F49F5F892F88
:1005E000832B81BF2917D1F790E08881833009F0F0
:1005F00091E0892FDF91CF911F910F91FF90EF90A4
:1006000008958CE080BFBA9AC298B89AC09A8BEBD2
:1006100091E00FDE8DE591E00CDE86E491E009DEED
:1006200081B7F9DD83E291E004DE8EE12CE094E015
:100630002FBD08B602FEFDCF98BFB29AA895815093
:10064000B9F719827E010894E11CF11C9CE0D92EB7
:1006500004E0C7018DDE182FFBDD80E090E080FF15
:10066000B29ADFBC08B602FEFDCF08BF0196843007
:100670009105A9F7112369F782E191E0DADD81B7ED
:10068000CADD86EE90E0D5DDECEFFFE184E087BFC8
:1006900021B7922F80E021E00C0127BFE8951124BB
:1006A00085E087BFE89507B600FCFDCF82EA90E0C1
:1006B000C0DDE5EEFEE084E087BF80E090E021E071
:1006C0000C0127BFE895112485E087BFE89507B6A0
:1006D00000FCFDCF88E790E0ACDD8EE490E0A9DD82
:1006E000E4E0FF270994FFCFFC0183E081831282BD
:1006F00080E014821382168215821086178211867A
:10070000138612868F5F3996833099F7089555279F
:10071000002480FF02C0060E571F660F771F611569
:10072000710521F096958795009799F7952F802D63
:100730000895FF27EE27BB27AA2760FF04C0A20F5A
:10074000B31FE41FF51F220F331F441F551F96953B
:1007500087957795679589F70097760771F7CF01A9
:10076000BD01089597FB092E07260AD077FD04D016
:100770002ED006D000201AF4709561957F4F089511
:10078000F6F7909581959F4F0895A1E21A2EAA1B26
:10079000BB1BFD010DC0AA1FBB1FEE1FFF1FA21731
:1007A000B307E407F50720F0A21BB30BE40BF50B2E
:1007B000661F771F881F991F1A9469F760957095B7
:1007C000809590959B01AC01BD01CF010895AA1BB6
:1007D000BB1B51E107C0AA1FBB1FA617B70710F02C
:1007E000A61BB70B881F991F5A95A9F7809590955E
:0A07F000BC01CD010895F894FFCF7D
:101DC000ECEFFFE184918F3F09F41BD431968491AD
:101DD00081BF112484B714BE837009F40AD18CE04A
:101DE00080BF8FE0F2D0BA9AB89AC09A86E02CE011
:101DF00094E02FBD08B602FEFDCF98BFB29AA89519
:101E00008150B9F700E010E03324339455E0252EDB
:101E10004FED542E3EEC432EBDD0813421F4BAD088
:101E2000D8D083E09AC0823411F484E103C08534B1
:101E300019F485E0D6D098C0853541F4ABD0A82EF2
:101E4000A9D0B82EAA0CBB1C85018DC0863521F403
:101E500084E0C7D080E081C0843609F04AC09AD0BF
:101E600099D0D82E97D0C0E0D1E094D08993DC16D9
:101E7000E1F7AFD023E0F80127BFE89507B600FCF3
:101E8000FDCF01151105E1F4E0900001F090010192
:101E90008090080190900901509200014092010148
:101EA0009092870180928601F0928501E0928401F0
:101EB0008CEF9FEFE80EF91EE0920801F092090105
:101EC000C801A0E0B1E06C9011967C901197129639
:101ED000FC01030137BEE89511240296F1E0A0341D
:101EE000BF0789F7F80127BEE89507B600FCFDCFCC
:101EF0003BC0843751F54ED04DD0C82E4BD069D061
:101F0000E801DC2C209719F48091840114C0C130C1
:101F1000D10519F4809185010EC0C830D10519F49E
:101F20008091860108C0C930D10519F480918701DC
:101F300002C0FE01849121961DD0DA9419F70F5F3B
:101F40001F4FCA940C0D111D0FC0853741F441D0AD
:101F50008EE110D083E90ED08BE00CD005C0813526
:0E1F600011F488E032D035D080E104D055CFA6
:101F74002AE08095089410F4C09802C0C09A00002A
:101F84001ED01DD01CD01BD086952A95A1F708958C
:101F9400B29A28E080E0B199FECF11D010D00FD0D2
:101FA4000ED00DD08894B199089487952A9509F09C
:101FB400F5CFA89504D003D002D0B29A089590E248
:101FC4009A95F1F7089598E191BD81BD0895E0DFF8
:101FD400803219F088E0F7DFFFCF84E1C9CF1F9387
:101FE400182FD6DF1150E9F7F2DF1F91089580E032
:081FF400EADFE4E0FF27099495
:041FFC00FFFF0504DA
:00000001FF
