:103D800001C014C1112484B7882379F0982F9A7048
:103D9000923059F081FF03C094B7977F94BF282ECB
:103DA00080E0EFD0E0E2FF27099485E08093810076
:103DB00080E88093C8008FE08093CD0098E89093CE
:103DC000CC008093C8001092D20089E2DAD00E9A1B
:103DD00086E02CE73CEF91E030938500209384004F
:103DE00096BBB09BFECF069AA8954091C90040FDB6
:103DF00002C0815089F782EC9EE1E92E23E0B22EC9
:103E0000AA24A39435E0932E6C01AFD0813461F4E1
:103E1000ACD0182FBCD01238E9F0113811F48BE374
:103E200001C083E09BD097C0823411F484E103C0C9
:103E3000853419F485E0B3D08EC0853539F495D03A
:103E4000C82F93D0D82FCC0FDD1F84C0863521F426
:103E500084E0A5D080E0E6CF843609F045C085D067
:103E600084D0F82E82D0882E00E011E07ED0F801B8
:103E700081938F01FE12FACF8AD02097C1F49091DE
:103E80000201909304028091030180930502C09285
:103E90000201E09203012091420120930602209149
:103EA0004301209307029093420180934301F5E47C
:103EB0008F1201C0FFCFFE01B7BEE89507B600FC28
:103EC000FDCFA0E0B1E0FE018D919D910C01A7BE58
:103ED000E89511243296FA12F7CFFE0197BEE895C5
:103EE00007B600FCFDCF37C0843739F53ED03DD052
:103EF000F82E3BD04CD08E010230110519F4809180
:103F0000040214C00330110519F4809105020EC09B
:103F10000234110519F48091060208C0033411051A
:103F200019F48091070202C0F801849117D0FA9425
:103F30000F5F1F4FF110E0CF0EC0853739F427D047
:103F40008EE10CD084E90AD087E86CCF813511F47A
:103F500088E017D01CD080E101D057CF9091C900E4
:103F600091FFFCCF8093D20008958091C90080FF1B
:103F7000FCCF8091C90084FD01C0A8958091D2003A
:103F80000895E0E6F0E098E1908380830895EDDF06
:103F9000803219F088E0F5DFFFCF84E1DFCFCF93E7
:103FA000C82FE3DFC150E9F7CF91F1CFFC010A013F
:0E3FB00067BFE895112407B600FCFDCF089509
:023FFE00003B86
:0400000300003D803C
:00000001FF
