:1000000003C003C003C003C003C003C003C003C0D8
:1000800013C02AC029C028C027C026C025C024C04C
:1000900023C022C021C020C01FC01EC01DC01CC064
:1000A0001BC01AC019C018C00000000000000000EA
:1000B0000000000000000000000000000000000040
:1000C000000000000000000011241FBECFEFD2E0AE
:1000D000DEBFCDBFD1D3E9C3D3CF009709F40895D4
:1000E000E0EAFFE03197F1F70197F7CF807C9B01C1
:1000F000205C3F4FDB01FC01E61BF70BEA0FFB1F07
:10010000459154914D935D93A217B307A1F70895BC
:10011000FC01E07C93E090935700E89507B600FC63
:10012000FDCF0895CF93DF939B01205C3F4FDB0110
:10013000FC01E61BF70BEA0FFB1FCD91DD9141E0BF
:100140000E0140935700E8951124A217B30781F7D9
:1001500025E0FC0120935700E89507B600FCFDCF91
:10016000DF91CF910895CF93DF93CDB7DEB7C05421
:10017000D1090FB6F894DEBF0FBECDBFBE016F5FD1
:100180007F4F90E080E0B2DFFE013196CE018F5BC1
:100190009F4F2FEF3FEF21933193E817F907C9F7EE
:1001A00090E080E0B5DFBE016F5F7F4F90E080E0C0
:1001B000B9DFC05CDF4F0FB6F894DEBF0FBECDBF16
:1001C000DF91CF910895EF92FF920F931F93CF93FA
:1001D000DF93CDB7DEB7C054D1090FB6F894DEBFB8
:1001E0000FBECDBF10E000E045E00E37140774F0FD
:1001F000C05CDF4F0FB6F894DEBF0FBECDBFDF91FE
:10020000CF911F910F91FF90EF90089530E020E083
:10021000F801E650FD4FE20FF31FC9018E7F48E061
:10022000E837F407FCF44591549161E070E06C0FFD
:100230007D1F860F971FFC01518340832E5F3F4F28
:100240002034310529F77801F0E8EF1AF5EEFF0ABE
:10025000C7015EDFBE016F5F7F4FC70163DF005CD8
:100260001F4FC2CF41E050E04C0F5D1F840F951F20
:100270004FEF5FEFE0CF0F931F93CF93DF93CDB797
:10028000DEB7C054D1090FB6F894DEBF0FBECDBFA4
:10029000FE013196CE018F5B9F4F8F012FE33DEC26
:1002A00021933193E817F907C9F790E080E030DF38
:1002B000B80190E080E036DFC05CDF4F0FB6F89405
:1002C000DEBF0FBECDBFDF91CF911F910F9108957B
:1002D000CF9384B1836084B92998CAEF81E090E01C
:1002E000FCDE299A81E090E0F8DE2998C150B1F750
:1002F000CF910895F0E0E0E0099417C01A7C400522
:10030000931109021200010100803209040000006B
:100310000000000012011001FF000008D016530772
:1003200005020000000104030904112421E0A0E0FB
:10033000B1E001C01D92AC32B207E1F72BC1DC0184
:1003400080E090E041E050EA609530E009C02D91F6
:1003500082279795879510F084279527305EC8F3FC
:100360006F5FA8F38D939D930895C395499BE9F71B
:10037000499B0BC0499B09C0499B07C0499B05C0CD
:10038000499B03C0499B01C089C00F92C0910E01D7
:10039000DD27CA5EDE4F0F9065E5499B03C00F92D3
:1003A0000F90E6CF0F930F910F9320E040E10F9154
:1003B00009B1067001FB27F93F9350E03BE039C0DB
:1003C000167040642F77012F5F5F1EC0406819B11F
:1003D00016702F7752501FC0406409B12F770670F6
:1003E000D1F15F5F00C023C0406219B12F77167052
:1003F00091F15F5F00C025C006701027515012F4C4
:100400005D5F0000115027952C3F19B1C8F616709A
:100410000127015027952C3FC8F64227499309B17F
:10042000067010274F73115027952C3FA8F646955C
:10043000469519B1167079F00127015027952C3F88
:1004400098F66B5A60F3315009B1B0F600C014E071
:100450001BBB00271DC03B503195C31BD04014E08F
:100460001BBB0881033CD9F00B34C9F020910C016F
:100470001981110F1213EDCF093601F10D3211F070
:10048000013E39F7CAE01BB312FD02C0CA95D9F785
:10049000009314013F91CBB3C2FD67CF0895209123
:1004A00014012223B9F310911201112309F53430FC
:1004B0000AF13093120120930D011CC0009112012A
:1004C0000130B4F40AE530910F0134FD14C00093FB
:1004D0000F01C1E0D1E013C0052710E000C000000B
:1004E0000BB91AC0052710E0221F1DC010E021C063
:1004F0004AE502C032ED432FC4E1D0E032E01AB148
:100500001660599A0BB11AB956E020E865E320FF4E
:1005100005270BB9279517951C3FF0F66695B8F798
:10052000B1F720FF05270BB9279517951C3FD0F68B
:100530002795179517FF052700001C3F0BB9B0F64C
:1005400029913A9519F7097F10911301110FC6519E
:10055000D0400BB911F010930C0114E01BBB0260EA
:100560001AB1197F402F497F54E05A95F1F70BB922
:100570001AB94BB98FCFF201309711F48FE39DEC8C
:1005800021E00C0120935700E8951124CF01029639
:100590002C01089584B78EBB14BE823061F083FDB8
:1005A0000AC080FF02C0369906C0EDE7FAE1E49187
:1005B000EF3F09F0F1C0A8958091600088618093B9
:1005C000600010926000519A88EB9BE0E0E9F1E056
:1005D0003197F1F70197D1F751988AE580930F0190
:1005E0008FEF8093000180916D00846080936D0097
:1005F00080916800846080936800509A24E7622E9E
:1006000024E0722E312C512C412CD0E005ED14E168
:1006100084E699B1967031F084E6DD2319F0712CEF
:1006200084E6D0E0815029F41092130110920C015D
:10063000D1E0DA9BA0C099DE84E08BBBA89522E0D4
:1006400032120CC0E0E8FAE1E054F10983E0809353
:100650005700E8953097C1F7512C412C832D8034F9
:1006600009F08EC0F2013297E0388AE1F80720F4F1
:1006700085E080935700E895312C809112018350DA
:1006800087FD2BC090910D019D3229F5883019F519
:1006900083EC809301018AE580930F01809117011B
:1006A000807690911801882309F49DC0712C9111D6
:1006B00074C082E89AE1909311018093100186E062
:1006C00090911E01911105C090911D01981708F499
:1006D000892F809300011092120180910F0184FFF5
:1006E00030C0809100018F3F61F1C82F893008F040
:1006F000C8E0982F9C1B909300019091010128E87D
:10070000922790930101882381F0E0911001F091EC
:100710001101A2E0B1E08C2F94919D93319681500C
:10072000D9F7F0931101E09310016C2F82E091E072
:1007300006DECC5FCC3019F08FEF80930001C093C0
:100740000F01C30101963C01803B24E0920729F48C
:10075000EDE7FAE1E491EF3FC9F48C7409F48AC043
:100760005898DA9B53CF8CE1499B8CE18150E1F79B
:1007700084E08BBB4BCF0150110909F04ACF5ECF0B
:10078000843009F079CF012B09F077CF58981AB847
:100790001092680010926D00AECD913079F4411442
:1007A000510411F480E08CCF80911B01807C482E95
:1007B00050901C0181E187BFE895F4CF933081F41C
:1007C0008091190190911A01D6DE80911B019091C0
:1007D0001C01D1DE842D8F7329F790E4392E70CF60
:1007E0009F73392EDFCF2091190110920A019111C8
:1007F0000AC010920B012AE031E082E0309311012F
:10080000209310015DCF953029F4209313012AE045
:1008100031E0F4CF9630F1F480911A01813041F447
:100820008AE99AE1909311018093100182E148CF07
:10083000823019F488E89AE1F5CF833009F0B2CF1D
:100840002111B0CF8CEA9AE19093110180931001AD
:1008500084E036CF983051F0993019F42093150187
:10086000D6CF81E09A3099F280E0D1CF25E131E016
:1008700081E0C4CF589A75CF85B115B884B18FEF98
:1008800084B98AEF90E029DC84B114B88AEF90E053
:1008900024DCF89468DC97DCEEDC1ADD8DE79AE165
:0E08A00037DC28DD90E080E00895F894FFCF6B
:040000030000008079
:00000001FF
