:1000000003C003C003C003C003C003C003C003C0D8
:100080001DC034C033C032C031C030C02FC02EC0FC
:100090002DC02CC02BC02AC029C028C027C026C014
:1000A00025C024C023C022C021C020C01FC01EC044
:1000B0001DC01CC01BC01AC019C018C00000000021
:1000C0000000000000000000000000000000000030
:1000D00000000000000000000000000011241FBE0E
:1000E000CFEFD2E0DEBFCDBF37D44FC4C9CF00972A
:1000F00009F40895E8EBFBE03197F1F70197F7CFAA
:10010000807F9B01205F3F4FDB01FC01E61BF70B6B
:10011000EA0FFB1F459154914D935D93A217B307CE
:10012000A1F70895FC01E07F93E090935700E895D4
:1001300007B600FCFDCF0895CF93DF939B01205FAE
:100140003F4FDB01FC01E61BF70BEA0FFB1FCD91D4
:10015000DD9141E00E0140935700E8951124A2176C
:10016000B30781F725E0FC0120935700E89507B617
:1001700000FCFDCFDF91CF910895CF93DF93CDB7F2
:10018000DEB760970FB6F894DEBF0FBECDBFBE01DD
:100190006F5F7F4F90E080E0B3DF8FEF9FEF9A8338
:1001A00089839C838B839E838D8398878F839A8793
:1001B00089879C878B879E878D87988B8F8790E018
:1001C00080E0B0DFBE016F5F7F4F90E080E0B4DF82
:1001D00060960FB6F894DEBF0FBECDBFDF91CF9112
:1001E0000895EF92FF920F931F93CF93DF93CDB7B4
:1001F000DEB760970FB6F894DEBF0FBECDBF10E03C
:1002000000E046E0043414076CF060960FB6F894F2
:10021000DEBF0FBECDBFDF91CF911F910F91FF9039
:10022000EF90089530E020E0F801EC5EFC4FE20F23
:10023000F31FC9018E7F49E0E835F407FCF44591CE
:10024000549161E070E06C0F7D1F860F971FFC01D9
:10025000518340832E5F3F4F2031310529F77801CC
:10026000F0E8EF1AF6EEFF0AC7015CDFBE016F5F30
:100270007F4FC70161DF005F1F4FC3CF41E050E0F8
:100280004C0F5D1F840F951F4FEF5FEFE0CFCF93B3
:10029000DF93CDB7DEB760970FB6F894DEBF0FBE21
:1002A000CDBF8FEB9CEC9A8389839C838B839E8349
:1002B0008D8398878F839A8789879C878B879E8772
:1002C0008D87988B8F8790E080E02CDFBE016F5F79
:1002D0007F4F90E080E030DF60960FB6F894DEBF8D
:1002E0000FBECDBFDF91CF910895CF9387B38360C9
:1002F00087BBC198CAEF81E090E0F9DEC19A81E046
:1003000090E0F5DEC198C150B1F7CF910895F0E0CB
:10031000E0E0099417C0197A1085931509021200BC
:1003200001010080320904000000000000001201F9
:100330001001FF000008D01653070502000000015D
:1003400004030904112421E0A0E0B1E001C01D92E2
:10035000AC32B207E1F78CC1DC018FEF9FEF33279E
:1003600015C02D912827722F22952727822F269599
:100370002695282723952270321777952795822F67
:100380008927972F7695279597278227615048F7D9
:10039000809590958D939D930895CF93CFB7CF93EC
:1003A000C395B09BE9F7B09B09C0B09B07C0B09B59
:1003B00005C0B09B03C0B09B01C0A7C0DF93C09134
:1003C0000E01DD27CA5EDE4FB09B02C0DF91EBCF8E
:1003D0002F930F931F9306B32FEF00FB20F94F933A
:1003E0003F9316B34FEF012700FB21F93BE031C0EB
:1003F0004E7F012F16B3216028C0102F4D7F226041
:10040000000006B329C04B7F2460012F000016B303
:100410002BC016B3477F28602AC04F7E06B32061E9
:100420002CC04F7D16B320622FC04F7B06B32064D3
:1004300032C0422706B349934FEF0000102710FB4C
:1004400020F916B31370C9F1297F91F2012700FB3F
:1004500021F906B3237F89F2315058F1102710FBA0
:1004600022F916B3277E79F2012700FB23F92F7CAE
:1004700081F206B3102710FB24F92F7971F200C026
:1004800016B3012700FB25F92F7359F200C006B3FC
:10049000102710FB26F9223040F200C016B30127C6
:1004A00000FB27F9243028F64F77206816B30000A8
:1004B000F9CF10E21ABF00271DC03B503195C31B76
:1004C000D04010E21ABF0881033C19F10B3409F146
:1004D00020910C011981110F1213EDCF093641F152
:1004E0000D3211F0013E39F7CAE01AB715FD02C00E
:1004F000CA95D9F7009314013F914F911F910F9125
:100500002F91DF91CAB7C5FD4BCFCF91CFBFCF9110
:10051000089520911401222379F3109112011123DF
:10052000E1F43430E2F03093120120930D0117C052
:100530000091120101308CF40AE530910F0134FD75
:1005400010C000930F01C1E0D1E00FC02795A8F4BF
:100550005150A9F4220F0000F9CF4AE503C042ED43
:1005600001C0432FC4E1D0E032E017B31360C09A5A
:1005700017BB08B320E413E05F93012756E008BBE4
:10058000279520F4515021F4220FF9CF012756E08E
:1005900000003B5A08BBD0F2279528F4515029F4AB
:1005A000220F0000F9CF012756E0279508BB20F461
:1005B000515021F4220FF9CF012756E0299133231E
:1005C00008BB21F60C7F10911301110FC651D040CA
:1005D00008BB11F010930C0110E21ABF016017B3B1
:1005E0001C7F402F4C7F5F9100C000C008BB17BB31
:1005F00048BB82CF2FEFB0E8A0E04AE0B093740090
:1006000000008EE599E0B099FECFB09BFECF019738
:10061000B099FDCF97FF03C0BA1B819501C0BA0FF7
:10062000A69541F4A0E430F4281718F03091740036
:10063000282FA1E0415011F7309374000000089575
:10064000F201309791F02AE7421629E1520619F497
:100650008091740090E021E00C0120935700E89510
:100660001124CF0102962C0108958FEB9CECF3CF5F
:1006700020907400EAE7F9E1E491EF3F19F0E0938C
:100680007400000004B600FC06C0EDE7F9E1E49157
:10069000EF3F09F0EBC088ED8093710087E081BDEA
:1006A000B89A88EB9BE0ECE2F1E03197F1F7019723
:1006B000D1F7B8988AE580930F018FEF80930001FE
:1006C00080B5826080BD8BB780628BBFBA9A24E709
:1006D000622E24E0722E312C512C412CD0E000EA05
:1006E0001FE084E696B3937039F084E6DD2321F0B1
:1006F00081DF712C84E6D0E0815029F4109213013F
:1007000010920C01D1E00AB605FEA1C046DE80E2DF
:100710008ABFA89522E032120CC0E0E8F9E1E0546B
:10072000F10983E080935700E8953097C1F7512C89
:10073000412C832D803409F08FC0F2013297E038CC
:1007400089E1F80720F485E080935700E895312C83
:1007500080911201835087FD2BC090910D019D3235
:1007600029F5883019F583EC809301018AE580939F
:100770000F0180911701807690911801882309F468
:10078000A2C0712C911179C082E899E19093110176
:100790008093100186E090911E01911105C0909107
:1007A0001D01981708F4892F8093000110921201FF
:1007B00080910F0184FF30C0809100018F3F61F173
:1007C000C82F893008F0C8E0982F9C1B9093000137
:1007D0009091010128E8922790930101882381F0EC
:1007E000E0911001F0911101A2E0B1E08C2F949101
:1007F0009D9331968150D9F7F0931101E093100148
:100800006C2F82E091E0A8DDCC5FCC3019F08FEF47
:1008100080930001C0930F01C30101963C01803B0E
:1008200024E0920729F4EDE7F9E1E491EF3FD1F4F8
:100830008C7409F48FC0C2980AB605FE50CF85E1CA
:10084000B09B85E18150E1F780E28ABF48CF01503B
:10085000110909F047CF5DCF843009F078CF012B23
:1008600009F076CFC29817BA1BBE10BC84B783BB01
:1008700014BE2092740000004BCD913079F44114E5
:10088000510411F480E087CF80911B01807F482EB6
:1008900050901C0181E187BFE895F4CF933081F43B
:1008A0008091190190911A01CBDE80911B019091EA
:1008B0001C01C6DE842D8F7029F790E4392E6BCF92
:1008C0009F73392EDFCF2091190110920A019111E7
:1008D0000AC010920B012AE031E082E0309311014E
:1008E0002093100158CF953029F4209313012AE06A
:1008F00031E0F4CF9630F1F480911A01813041F467
:100900008AE999E1909311018093100182E143CF2C
:10091000823019F488E899E1F5CF833009F0B2CF3D
:100920002111B0CF8CEA99E19093110180931001CD
:1009300084E031CF983051F0993019F420931501AB
:10094000D6CF81E09A3099F280E0D1CF25E131E035
:1009500081E0C4CFC29A70CF88B318BA87B38FEF43
:1009600087BB8AEF90E0C3DB87B317BA8AEF90E0CA
:10097000BEDBF89402DC35DC8ADCB7DC8DE799E17C
:0E098000D1DBC5DC90E080E00895F894FFCF55
:040000030000008079
:00000001FF
