:1000000003C003C003C003C003C003C003C003C0D8
:1000800012C029C028C027C026C025C024C023C054
:1000900022C021C020C01FC01EC01DC01CC01BC06C
:1000A0001AC019C018C000000000000000000000C5
:1000B0000000000000000000000000000000000040
:1000C00000000000000011241FBECFE5D2E0DEBF1B
:1000D000CDBF70D488C4D4CF009709F40895EDE162
:1000E000F0E13197F1F70197F7CF807C9B01205C1D
:1000F0003F4FDB01FC01E61BF70BEA0FFB1F4591AD
:1001000054914D935D93A217B307A1F70895FC0195
:10011000E07C93E090935700E89507B600FCFDCF94
:100120000895CF93DF939B01205C3F4FDB01FC01DF
:10013000E61BF70BEA0FFB1FCD91DD9141E00E01AD
:1001400040935700E8951124A217B30781F725E0E3
:10015000FC0120935700E89507B600FCFDCFDF9126
:10016000CF910895CF93DF93CDB7DEB7C054D109B7
:100170000FB6F894DEBF0FBECDBFBE016F5F7F4FDD
:1001800090E080E0B2DFFE013196CE018F5B9F4FA1
:100190002FEF3FEF21933193E817F907C9F790E06C
:1001A00080E0B5DFBE016F5F7F4F90E080E0B9DF98
:1001B000C05CDF4F0FB6F894DEBF0FBECDBFDF913E
:1001C000CF910895EF92FF920F931F93CF93DF93F8
:1001D000CDB7DEB7C054D1090FB6F894DEBF0FBE5D
:1001E000CDBF10E000E046E00C3B140774F0C05CAB
:1001F000DF4F0FB6F894DEBF0FBECDBFDF91CF91BA
:100200001F910F91FF90EF90089530E020E0F801EA
:10021000E850FD4FE20FF31FC9018E7F49E0E43B38
:10022000F407FCF44591549161E070E06C0F7D1F80
:10023000860F971FFC01518340832E5F3F4F203470
:10024000310529F77801F0ECEF1AF6EEFF0AC70145
:100250005EDFBE016F5F7F4FC70163DF005C1F4F32
:10026000C2CF41E050E04C0F5D1F840F951F4FEF50
:100270005FEFE0CF0F931F93CF93DF93CDB7DEB740
:10028000C054D1090FB6F894DEBF0FBECDBFFE013A
:100290003196CE018F5B9F4F8F012FE93CEC21936C
:1002A0003193E817F907C9F790E080E030DFB80133
:1002B00090E080E036DFC05CDF4F0FB6F894DEBF21
:1002C0000FBECDBFDF91CF911F910F910895CF93B6
:1002D00087B3836087BBC198CAEF81E090E0FCDE02
:1002E000C19A81E090E0F8DEC198C150B1F7CF919A
:1002F0000895F0E0E0E0099417C0193A4005930D25
:10030000090212000101008032090400000000000F
:10031000000012011001FF000008D016530705026B
:100320000000000104030904112410E0A0E6B0E07D
:10033000EEEAFFE102C005900D92AE3AB107D9F79F
:1003400020E0AEEAB0E001C01D92AA3DB207E1F79D
:1003500093C1DC0180E090E041E050EA609530E03C
:1003600009C02D9182279795879510F084279527AE
:10037000305EC8F36F5FA8F38D939D930895C39586
:10038000CD9BE9F7CD9B0BC0CD9B09C0CD9B07C092
:10039000CD9B05C0CD9B03C0CD9B01C0D1C00F92AA
:1003A0000F90C091BC00DD27CC53DF4F012ECD9BB9
:1003B00003C00F920F90E6CF0F930F910F930F9101
:1003C0002FEF4F6F09B305FB20F90F930F9150E00A
:1003D0003BE065C019B30126502955FDC89559B3B6
:1003E000012705FB25F92F7309B3B1F0502710271A
:1003F00015FB26F909B22230F0F000C019B301272D
:1004000005FB27F90126502909B22430E8F54F777A
:10041000206819B30000F6CF50274F7D206209B243
:10042000102F000000C009B300265029102715FB2B
:1004300026F909B2E2CF4F7B09B3206400C0DACFBE
:1004400001265029107309B269F14E7F2160012FF6
:1004500019B328C0002650294D7F09B22260102F01
:1004600029C0012650294B7F09B22460012F2DC0DD
:1004700019B301265029477F2860000009B22EC019
:100480004F7E09B3206130C0422709B3499300264B
:100490005029102709B24FEF15FB20F9297F19B316
:1004A00079F2107359F10126502909B2012705FB91
:1004B00021F9237F09B371F2002650293150D0F081
:1004C00009B2102715FB22F9277E19B351F2012634
:1004D0005029012705FB09B223F92F7C49F20000BE
:1004E00009B3102715FB24F90026502909B22F79EA
:1004F00039F270CF10E21ABF00271DC03B50319572
:10050000C31BD04010E21ABF0881033CD1F00B346A
:10051000C1F02091BA001981110F1213EDCF0936E5
:10052000F9F00D3211F0013E39F7CAE01AB715FDA6
:1005300002C0CA95D9F70093C200CAB7C5FD1FCF44
:1005400008952091C2002223C1F31091C00011230D
:10055000F1F43430F2F03093C0002093BB0019C0A6
:100560000091C00001309CF40AE53091BD0034FDDB
:1005700011C00093BD00CFEAD0E010C0052710E005
:1005800000C021C0052710E0C8950BBB14C03AE598
:1005900001C032ED032EC0E0D0E032E01AB31063A8
:1005A000DD9A0BB31ABB50E320E84FEF20FF05277D
:1005B0000BBB279517951C3F28F700004552B0F755
:1005C00020FF052727950BBB17951C3FB8F62991EF
:1005D0003A9561F70F7C1091C100110F0BBBC2500F
:1005E000D04011F01093BA0010E21ABF00621AB3A3
:1005F0001F7C402F4F7C54E05A95F1F70BBB1ABB80
:100600004BBB9BCF2FEFB0E8A0E04AE0B1BF0000AA
:1006100081EE9CE0CD99FECFCD9BFECF0197CD9989
:10062000FDCF97FF03C0BA1B819501C0BA0FA695F5
:1006300039F4A0E428F4281710F031B7282FA1E0EE
:10064000415021F731BF00000895F201309789F041
:100650002AE3421629E1520611F481B790E021E025
:100660000C0120935700E8951124CF0102962C012C
:1006700008958FE99CECF3CFEAE3F9E1E491EF3FD1
:1006800011F0E1BF000004B601FC08C0B79906C034
:10069000EDE3F9E1E491EF3F09F0F0C088E181BDBD
:1006A00087E081BDD59A88EB9BE0ECE9F1E03197DA
:1006B000F1F70197D1F7D5988AE58093BD008FEFC8
:1006C0008093AE0082B5806182BD8BB780628BBFA4
:1006D000BE9A24E7622E24E0722E312C512C412C3C
:1006E000D0E00CE715E184E699B3907339F084E625
:1006F000DD2321F087DF712C84E6D0E0815029F4DE
:100700001092C1001092BA00D1E00AB605FEA1C055
:1007100036DE80E28ABFA89522E032120CC0E0E407
:10072000F9E1E054F10983E080935700E8953097B0
:10073000C1F7512C412C832D803409F08FC0F20178
:100740003297E03489E1F80720F485E08093570080
:10075000E895312C8091C000835087FD2BC090918B
:10076000BB009D3229F5883019F583EC8093AF00EA
:100770008AE58093BD008091C50080769091C60087
:10078000882309F4A5C0712C91117CC082E499E101
:100790009093BF008093BE0086E09091CC009111B1
:1007A00005C09091CB00981708F4892F8093AE0074
:1007B0001092C0008091BD0084FF30C08091AE00D7
:1007C0008F3F61F1C82F893008F0C8E0982F9C1B3B
:1007D0009093AE009091AF0028E892279093AF00DD
:1007E000882381F0E091BE00F091BF00A0EBB0E063
:1007F0008C2F94919D9331968150D9F7F093BF003F
:10080000E093BE006C2F80EB90E0A3DDCC5FCC309A
:1008100019F08FEF8093AE00C093BD00C301019625
:100820003C01803B24E0920729F4EDE3F9E1E491F7
:10083000EF3FD1F48C7409F492C0C6980AB605FE55
:1008400050CF8DE1CD9B8DE18150E1F780E28ABFF1
:1008500048CF0150110909F047CF5DCF843009F02E
:1008600078CF012B09F076CFC69880E690E08758C4
:10087000904009F076C01ABA1BBE12BC84B78AB980
:1008800014BE38CD913079F44114510411F480E054
:1008900084CF8091C900807C482E5090CA0081E1AD
:1008A00087BFE895F4CF933081F48091C700909191
:1008B000C800CBDE8091C9009091CA00C6DE842DAD
:1008C0008F7329F790E4392E68CF9F73392EDFCFCD
:1008D0002091C7001092B80091110AC01092B9007F
:1008E00028EB30E082E03093BF002093BE0055CF6C
:1008F000953029F42093C10028EB30E0F4CF9630F6
:10090000F1F48091C800813041F48AE599E1909337
:10091000BF008093BE0082E140CF823019F488E4AA
:1009200099E1F5CF833009F0B2CF2111B0CF8CE639
:1009300099E19093BF008093BE0084E02ECF983061
:1009400051F0993019F42093C300D6CF81E09A304A
:1009500099F280E0D1CF23EC30E081E0C4CFC69A99
:100960006DCFD59889CF282A28766F6C6174696C11
:10097000652075696E74385F74202A2928283078BC
:10098000314129202B2030783230292900282A288B
:10099000766F6C6174696C652075696E74385F740C
:1009A000202A2928283078313729202B2030783206
:1009B0003029290088B318BA87B38FEF87BB8AEF35
:1009C00090E08ADB87B317BA8AEF90E085DBF89472
:1009D000C9DBF8DB4FDC7BDC8DE399E198DB89DC5C
:0A09E00090E080E00895F894FFCF46
:040000030000008079
:00000001FF
