:1000000003C003C003C003C003C003C003C003C0D8
:1000800037C000004DC000004BC0000049C0000058
:1000900047C0000045C0000043C0000041C0000050
:1000A0003FC000003DC000003BC0000039C0000060
:1000B00037C0000035C0000033C0000031C0000070
:1000C0002FC000002DC000002BC0000029C0000080
:1000D00027C0000025C0000023C0000021C0000090
:1000E0001FC000001DC000001BC0000019C00000A0
:1000F0000000000000000000000000000000000000
:1001000000000000000000000000000000000000EF
:1001100011241FBECFEFD4E0DEBFCDBF2AD442C42E
:10012000AFCF009709F40895E8EBFBE03197F1F7C2
:100130000197F7CF807E9B01205E3F4FDB01FC01E2
:10014000E61BF70BEA0FFB1F459154914D935D930E
:10015000A217B307A1F70895FC01E07E93E0909306
:100160005700E89507B600FCFDCF0895CF93DF93C5
:100170009B01205E3F4FDB01FC01E61BF70BEA0F02
:10018000FB1FCD91DD9141E00E0140935700E895B2
:100190001124A217B30781F725E0FC012093570033
:1001A000E89507B600FCFDCFDF91CF910895CF937E
:1001B000DF93CDB7DEB7A0970FB6F894DEBF0FBEC2
:1001C000CDBFBE016F5F7F4F90E080E0B3DFFE01E7
:1001D0003196CE0181962FEF3FEF21933193E817AF
:1001E000F907C9F790E080E0B7DFBE016F5F7F4F8E
:1001F00090E080E0BBDFA0960FB6F894DEBF0FBEA4
:10020000CDBFDF91CF910895EF92FF920F931F938F
:10021000CF93DF93CDB7DEB7A0970FB6F894DEBFCC
:100220000FBECDBF10E000E046E0003414076CF0D4
:10023000A0960FB6F894DEBF0FBECDBFDF91CF9171
:100240001F910F91FF90EF90089530E020E0F801AA
:10025000EE5CFC4FE20FF31FC9018E7F49E0E237ED
:10026000F407FCF44591549161E070E06C0F7D1F40
:10027000860F971FFC01518340832E5F3F4F203232
:10028000310529F77801F0E8EF1AF6ECFF0AC7010B
:1002900063DFBE016F5F7F4FC70168DF005E1F4FE6
:1002A000C3CF41E050E04C0F5D1F840F951F4FEF0F
:1002B0005FEFE0CF0F931F93CF93DF93CDB7DEB700
:1002C000A0970FB6F894DEBF0FBECDBFFE013196EA
:1002D000CE0181968F012FEB3CED21933193E817EE
:1002E000F907C9F790E080E037DFB80190E080E0DF
:1002F0003DDFA0960FB6F894DEBF0FBECDBFDF91F5
:10030000CF911F910F910895CF938CB183608CB9D9
:100310006998CAEF81E090E004DF699A81E090E09B
:1003200000DF6998C150B1F7CF910895F0E0E0E0A7
:10033000099418C00000397A20859412090212002D
:1003400001010080320904000000000000001201D9
:100350001001FF000008D01653070502000000013D
:10036000040309041124CFEFD4E0CDBFDEBF21E0A8
:10037000A0E0B1E001C01D92AC32B207E1F792C13A
:10038000DC018FEF9FEF332715C02D912827722FA7
:1003900022952727822F2695269528272395227098
:1003A000321777952795822F8927972F769527954E
:1003B00097278227615048F7809590958D939D935C
:1003C0000895CF93CFB7CF93C3953D9BE9F73D9B5E
:1003D00009C03D9B07C03D9B05C03D9B03C03D9BA5
:1003E00001C0A7C0DF93C0910E01DD27CA5EDE4FBA
:1003F0003D9B02C0DF91EBCF2F930F931F9307B16B
:100400002FEF05FB20F94F933F9317B14FEF0127D3
:1004100005FB21F93BE031C04E7F012F17B1216070
:1004200028C0102F4D7F2260000007B129C04B7FEC
:100430002460012F000017B12BC017B1477F28603F
:100440002AC04F7E07B120612CC04F7D17B12062BA
:100450002FC04F7B07B1206432C0422707B14993B8
:100460004FEF0000102715FB20F917B11073C9F1E9
:10047000297F91F2012705FB21F907B1237F89F23A
:10048000315058F1102715FB22F917B1277E79F268
:10049000012705FB23F92F7C81F207B1102715FBFB
:1004A00024F92F7971F200C017B1012705FB25F956
:1004B0002F7359F200C007B1102715FB26F922301F
:1004C00040F200C017B1012705FB27F9243028F6B8
:1004D0004F77206817B10000F9CF10E21BBF00274B
:1004E0001DC03B503195C31BD04010E21BBF08819B
:1004F000033C19F10B3409F120910C011981110F02
:100500001213EDCF093641F10D3211F0013E39F7EA
:10051000CAE01BB715FD02C0CA95D9F700931401B4
:100520003F914F911F910F912F91DF91CBB7C5FD57
:100530004BCFCF91CFBFCF910895209114012223AB
:1005400079F3109112011123E1F43430E2F0309389
:10055000120120930D0117C00091120101308CF49B
:100560000AE530910F0134FD10C000930F01C1E086
:10057000D1E00FC02795A8F45150A9F4220F000034
:10058000F9CF4AE503C042ED01C0432FC4E1D0E0FA
:1005900032E018B110634D9A18B909B120E410E3A4
:1005A0005F93012756E009B9279520F4515021F4B3
:1005B000220FF9CF012756E000003B5A09B9D0F2CB
:1005C000279528F4515029F4220F0000F9CF012774
:1005D00056E0279509B920F4515021F4220FF9CFA4
:1005E000012756E02991332309B921F60F7C109198
:1005F0001301110FC651D04009B911F010930C012D
:1006000010E21BBF006218B11F7C402F4F7C5F912E
:1006100000C000C009B918B949B982CF2FEFB0E8BE
:10062000A0E04AE0B093630000008EE599E03D99B8
:10063000FECF3D9BFECF01973D99FDCF97FF03C0B5
:10064000BA1B819501C0BA0FA69541F4A0E430F41D
:10065000281718F030916300282FA1E0415011F7BE
:100660003093630000000895F2013097A9F0E23062
:10067000F105A9F02AE7421629E3520619F4809100
:10068000630090E021E00C0120935700E8951124CD
:10069000CF0102962C0108958CE094E9F3CF80EC11
:1006A0009CE1F0CF20906300EAE7F9E3E491EF3FAB
:1006B00019F0E0936300000088ED8FBD87E080BFF4
:1006C000459A88EB9BE0ECE2F1E03197F1F7019776
:1006D000D1F745988AE580930F018FEF8093000151
:1006E00089B5806189BD8CB780628CBF409A24E750
:1006F000622E24E0722E312C512C412CD0E000EAE5
:100700001FE084E697B1907339F084E6DD2321F091
:1007100085DF712C84E6D0E0815029F4109213011A
:1007200010920C01D1E00BB605FEA1C04ADE80E2BA
:100730008BBFA89522E032120CC0E0E8F9E3E05844
:10074000F10983E080935700E8953097C1F7512C69
:10075000412C832D803409F08FC0F2013297E038AC
:1007600089E3F80720F485E080935700E895312C61
:1007700080911201835087FD2BC090910D019D3215
:1007800029F5883019F583EC809301018AE580937F
:100790000F0180911701807690911801882309F448
:1007A0009FC0712C911176C084E899E39093110158
:1007B0008093100186E090911E01911105C09091E7
:1007C0001D01981708F4892F8093000110921201DF
:1007D00080910F0184FF30C0809100018F3F61F153
:1007E000C82F893008F0C8E0982F9C1B9093000117
:1007F0009091010128E8922790930101882381F0CC
:10080000E0911001F0911101A2E0B1E08C2F9491E0
:100810009D9331968150D9F7F0931101E093100127
:100820006C2F82E091E0ACDDCC5FCC3019F08FEF23
:1008300080930001C0930F01C30101963C01803BEE
:1008400024E0920729F4EDE7F9E3E491EF3FD1F4D6
:100850008C7409F48CC048980BB605FE50CF85E126
:100860003D9B85E18150E1F780E28BBF48CF01508D
:10087000110909F047CF5DCF843009F078CF012B03
:1008800009F076CF489818B81CBE19BC20926300B6
:1008900000004DCD913079F44114510411F480E001
:1008A0008ACF80911B01807E482E50901C0181E1EF
:1008B00087BFE895F4CF933081F48091190190912E
:1008C0001A01D2DE80911B0190911C01CDDE842D96
:1008D0008F7129F790E4392E6ECF9F73392EDFCFB9
:1008E0002091190110920A0191110AC010920B0176
:1008F0002AE031E082E030931101209310015BCFB8
:10090000953029F4209313012AE031E0F4CF96309A
:10091000F1F480911A01813041F48CE999E39093CC
:1009200011018093100182E146CF823019F48AE8E8
:1009300099E3F5CF833009F0B2CF2111B0CF8EEA21
:1009400099E3909311018093100184E034CF9830A3
:1009500051F0993019F420931501D6CF81E09A30E7
:1009600099F280E0D1CF25E131E081E0C4CF489A0F
:1009700073CF8DB11DB88CB18FEF8CB98AEF90E039
:10098000D0DB8CB11CB88AEF90E0CBDBF8940FDCA5
:100990003BDC90DCB9DC8DE799E3DEDBC7DC90E083
:0809A00080E00895F894FFCFF8
:040000030000008079
:00000001FF
